{"abi":[{"type":"function","name":"getVar","inputs":[],"outputs":[{"name":"","type":"bool","internalType":"bool"}],"stateMutability":"view"},{"type":"function","name":"isOwner","inputs":[],"outputs":[{"name":"","type":"bool","internalType":"bool"}],"stateMutability":"view"},{"type":"function","name":"setVar","inputs":[{"name":"newVal","type":"bool","internalType":"bool"}],"outputs":[],"stateMutability":"nonpayable"}],"bytecode":{"object":"0x60806040526000805460ff1916600117905534801561001d57600080fd5b5060e58061002c6000396000f3fe6080604052348015600f57600080fd5b5060043610603c5760003560e01c8063477a5c981460415780638f32d59b14605c578063b19bed4d146068575b600080fd5b60005460ff165b604051901515815260200160405180910390f35b60005460489060ff1681565b608660733660046088565b6000805460ff1916911515919091179055565b005b600060208284031215609957600080fd5b8135801515811460a857600080fd5b939250505056fea26469706673582212203a044de68efa3204e001d17369b8ab4b1347ee769872498429083db3aeda040264736f6c63430008170033","linkReferences":{}},"methodIdentifiers":{"getVar()":"477a5c98","isOwner()":"8f32d59b","setVar(bool)":"b19bed4d"},"id":0}